{
  "contractName": "NFT",
  "abi": [
    {
      "anonymous": false,
      "inputs": [
        {
          "indexed": true,
          "internalType": "address",
          "name": "owner",
          "type": "address"
        },
        {
          "indexed": true,
          "internalType": "address",
          "name": "approved",
          "type": "address"
        },
        {
          "indexed": true,
          "internalType": "uint256",
          "name": "tokenId",
          "type": "uint256"
        }
      ],
      "name": "Approval",
      "type": "event"
    },
    {
      "anonymous": false,
      "inputs": [
        {
          "indexed": true,
          "internalType": "address",
          "name": "owner",
          "type": "address"
        },
        {
          "indexed": true,
          "internalType": "address",
          "name": "operator",
          "type": "address"
        },
        {
          "indexed": false,
          "internalType": "bool",
          "name": "approved",
          "type": "bool"
        }
      ],
      "name": "ApprovalForAll",
      "type": "event"
    },
    {
      "anonymous": false,
      "inputs": [
        {
          "indexed": true,
          "internalType": "address",
          "name": "previousOwner",
          "type": "address"
        },
        {
          "indexed": true,
          "internalType": "address",
          "name": "newOwner",
          "type": "address"
        }
      ],
      "name": "OwnershipTransferred",
      "type": "event"
    },
    {
      "anonymous": false,
      "inputs": [
        {
          "indexed": true,
          "internalType": "address",
          "name": "from",
          "type": "address"
        },
        {
          "indexed": true,
          "internalType": "address",
          "name": "to",
          "type": "address"
        },
        {
          "indexed": true,
          "internalType": "uint256",
          "name": "tokenId",
          "type": "uint256"
        }
      ],
      "name": "Transfer",
      "type": "event"
    },
    {
      "inputs": [
        {
          "internalType": "address",
          "name": "to",
          "type": "address"
        },
        {
          "internalType": "uint256",
          "name": "tokenId",
          "type": "uint256"
        }
      ],
      "name": "approve",
      "outputs": [],
      "stateMutability": "nonpayable",
      "type": "function"
    },
    {
      "inputs": [
        {
          "internalType": "address",
          "name": "owner",
          "type": "address"
        }
      ],
      "name": "balanceOf",
      "outputs": [
        {
          "internalType": "uint256",
          "name": "",
          "type": "uint256"
        }
      ],
      "stateMutability": "view",
      "type": "function"
    },
    {
      "inputs": [
        {
          "internalType": "uint256",
          "name": "tokenId",
          "type": "uint256"
        }
      ],
      "name": "getApproved",
      "outputs": [
        {
          "internalType": "address",
          "name": "",
          "type": "address"
        }
      ],
      "stateMutability": "view",
      "type": "function"
    },
    {
      "inputs": [
        {
          "internalType": "address",
          "name": "owner",
          "type": "address"
        },
        {
          "internalType": "address",
          "name": "operator",
          "type": "address"
        }
      ],
      "name": "isApprovedForAll",
      "outputs": [
        {
          "internalType": "bool",
          "name": "",
          "type": "bool"
        }
      ],
      "stateMutability": "view",
      "type": "function"
    },
    {
      "inputs": [],
      "name": "name",
      "outputs": [
        {
          "internalType": "string",
          "name": "",
          "type": "string"
        }
      ],
      "stateMutability": "view",
      "type": "function"
    },
    {
      "inputs": [],
      "name": "owner",
      "outputs": [
        {
          "internalType": "address",
          "name": "",
          "type": "address"
        }
      ],
      "stateMutability": "view",
      "type": "function"
    },
    {
      "inputs": [
        {
          "internalType": "uint256",
          "name": "tokenId",
          "type": "uint256"
        }
      ],
      "name": "ownerOf",
      "outputs": [
        {
          "internalType": "address",
          "name": "",
          "type": "address"
        }
      ],
      "stateMutability": "view",
      "type": "function"
    },
    {
      "inputs": [
        {
          "internalType": "address",
          "name": "",
          "type": "address"
        },
        {
          "internalType": "uint256",
          "name": "",
          "type": "uint256"
        }
      ],
      "name": "ownershipRecord",
      "outputs": [
        {
          "internalType": "uint256",
          "name": "tokenId",
          "type": "uint256"
        },
        {
          "internalType": "uint256",
          "name": "timeStamp",
          "type": "uint256"
        },
        {
          "internalType": "string",
          "name": "tokenURI",
          "type": "string"
        }
      ],
      "stateMutability": "view",
      "type": "function"
    },
    {
      "inputs": [],
      "name": "renounceOwnership",
      "outputs": [],
      "stateMutability": "nonpayable",
      "type": "function"
    },
    {
      "inputs": [
        {
          "internalType": "address",
          "name": "from",
          "type": "address"
        },
        {
          "internalType": "address",
          "name": "to",
          "type": "address"
        },
        {
          "internalType": "uint256",
          "name": "tokenId",
          "type": "uint256"
        }
      ],
      "name": "safeTransferFrom",
      "outputs": [],
      "stateMutability": "nonpayable",
      "type": "function"
    },
    {
      "inputs": [
        {
          "internalType": "address",
          "name": "from",
          "type": "address"
        },
        {
          "internalType": "address",
          "name": "to",
          "type": "address"
        },
        {
          "internalType": "uint256",
          "name": "tokenId",
          "type": "uint256"
        },
        {
          "internalType": "bytes",
          "name": "_data",
          "type": "bytes"
        }
      ],
      "name": "safeTransferFrom",
      "outputs": [],
      "stateMutability": "nonpayable",
      "type": "function"
    },
    {
      "inputs": [
        {
          "internalType": "address",
          "name": "operator",
          "type": "address"
        },
        {
          "internalType": "bool",
          "name": "approved",
          "type": "bool"
        }
      ],
      "name": "setApprovalForAll",
      "outputs": [],
      "stateMutability": "nonpayable",
      "type": "function"
    },
    {
      "inputs": [
        {
          "internalType": "bytes4",
          "name": "interfaceId",
          "type": "bytes4"
        }
      ],
      "name": "supportsInterface",
      "outputs": [
        {
          "internalType": "bool",
          "name": "",
          "type": "bool"
        }
      ],
      "stateMutability": "view",
      "type": "function"
    },
    {
      "inputs": [],
      "name": "symbol",
      "outputs": [
        {
          "internalType": "string",
          "name": "",
          "type": "string"
        }
      ],
      "stateMutability": "view",
      "type": "function"
    },
    {
      "inputs": [
        {
          "internalType": "uint256",
          "name": "tokenId",
          "type": "uint256"
        }
      ],
      "name": "tokenURI",
      "outputs": [
        {
          "internalType": "string",
          "name": "",
          "type": "string"
        }
      ],
      "stateMutability": "view",
      "type": "function"
    },
    {
      "inputs": [
        {
          "internalType": "address",
          "name": "from",
          "type": "address"
        },
        {
          "internalType": "address",
          "name": "to",
          "type": "address"
        },
        {
          "internalType": "uint256",
          "name": "tokenId",
          "type": "uint256"
        }
      ],
      "name": "transferFrom",
      "outputs": [],
      "stateMutability": "nonpayable",
      "type": "function"
    },
    {
      "inputs": [
        {
          "internalType": "address",
          "name": "newOwner",
          "type": "address"
        }
      ],
      "name": "transferOwnership",
      "outputs": [],
      "stateMutability": "nonpayable",
      "type": "function"
    },
    {
      "inputs": [
        {
          "internalType": "address",
          "name": "recipient",
          "type": "address"
        }
      ],
      "name": "mintToken",
      "outputs": [],
      "stateMutability": "nonpayable",
      "type": "function"
    }
  ],
  "bytecode": "0x60806040523480156200001157600080fd5b506040518060400160405280600781526020017f4c616c614e6674000000000000000000000000000000000000000000000000008152506040518060400160405280600481526020017f4c4e4654000000000000000000000000000000000000000000000000000000008152506200009e62000092620000d860201b60201c565b620000e060201b60201c565b8160019080519060200190620000b6929190620001a4565b508060029080519060200190620000cf929190620001a4565b505050620002b9565b600033905090565b60008060009054906101000a900473ffffffffffffffffffffffffffffffffffffffff169050816000806101000a81548173ffffffffffffffffffffffffffffffffffffffff021916908373ffffffffffffffffffffffffffffffffffffffff1602179055508173ffffffffffffffffffffffffffffffffffffffff168173ffffffffffffffffffffffffffffffffffffffff167f8be0079c531659141344cd1fd0a4f28419497f9722a3daafe3b4186f6b6457e060405160405180910390a35050565b828054620001b29062000283565b90600052602060002090601f016020900481019282620001d6576000855562000222565b82601f10620001f157805160ff191683800117855562000222565b8280016001018555821562000222579182015b828111156200022157825182559160200191906001019062000204565b5b50905062000231919062000235565b5090565b5b808211156200025057600081600090555060010162000236565b5090565b7f4e487b7100000000000000000000000000000000000000000000000000000000600052602260045260246000fd5b600060028204905060018216806200029c57607f821691505b60208210811415620002b357620002b262000254565b5b50919050565b612f9380620002c96000396000f3fe608060405234801561001057600080fd5b50600436106101165760003560e01c806370a08231116100a2578063a22cb46511610071578063a22cb465146102e1578063b88d4fde146102fd578063c87b56dd14610319578063e985e9c514610349578063f2fde38b1461037957610116565b806370a082311461026b578063715018a61461029b5780638da5cb5b146102a557806395d89b41146102c357610116565b8063095ea7b3116100e9578063095ea7b3146101b557806323b872dd146101d157806337746cc5146101ed57806342842e0e1461021f5780636352211e1461023b57610116565b806301173a741461011b57806301ffc9a71461013757806306fdde0314610167578063081812fc14610185575b600080fd5b61013560048036038101906101309190611d4e565b610395565b005b610151600480360381019061014c9190611dd3565b610598565b60405161015e9190611e1b565b60405180910390f35b61016f61067a565b60405161017c9190611ecf565b60405180910390f35b61019f600480360381019061019a9190611f27565b61070c565b6040516101ac9190611f63565b60405180910390f35b6101cf60048036038101906101ca9190611f7e565b610791565b005b6101eb60048036038101906101e69190611fbe565b6108a9565b005b61020760048036038101906102029190611f7e565b610909565b60405161021693929190612020565b60405180910390f35b61023960048036038101906102349190611fbe565b6109d8565b005b61025560048036038101906102509190611f27565b6109f8565b6040516102629190611f63565b60405180910390f35b61028560048036038101906102809190611d4e565b610aaa565b604051610292919061205e565b60405180910390f35b6102a3610b62565b005b6102ad610bea565b6040516102ba9190611f63565b60405180910390f35b6102cb610c13565b6040516102d89190611ecf565b60405180910390f35b6102fb60048036038101906102f691906120a5565b610ca5565b005b6103176004803603810190610312919061221a565b610cbb565b005b610333600480360381019061032e9190611f27565b610d1d565b6040516103409190611ecf565b60405180910390f35b610363600480360381019061035e919061229d565b610dc4565b6040516103709190611e1b565b60405180910390f35b610393600480360381019061038e9190611d4e565b610e58565b005b61039d610f50565b73ffffffffffffffffffffffffffffffffffffffff166103bb610bea565b73ffffffffffffffffffffffffffffffffffffffff1614610411576040517f08c379a000000000000000000000000000000000000000000000000000000000815260040161040890612329565b60405180910390fd5b8073ffffffffffffffffffffffffffffffffffffffff16610430610bea565b73ffffffffffffffffffffffffffffffffffffffff161415610487576040517f08c379a000000000000000000000000000000000000000000000000000000000815260040161047e906123bb565b60405180910390fd5b61049333600754610f58565b600860008273ffffffffffffffffffffffffffffffffffffffff1673ffffffffffffffffffffffffffffffffffffffff168152602001908152602001600020604051806060016040528060075481526020014281526020016040518060400160405280601381526020017f687474703a2f2f696d672f6e616d652e706e670000000000000000000000000081525081525090806001815401808255809150506001900390600052602060002090600302016000909190919091506000820151816000015560208201518160010155604082015181600201908051906020019061057d929190611c39565b505050600160075461058f919061240a565b60078190555050565b60007f80ac58cd000000000000000000000000000000000000000000000000000000007bffffffffffffffffffffffffffffffffffffffffffffffffffffffff1916827bffffffffffffffffffffffffffffffffffffffffffffffffffffffff1916148061066357507f5b5e139f000000000000000000000000000000000000000000000000000000007bffffffffffffffffffffffffffffffffffffffffffffffffffffffff1916827bffffffffffffffffffffffffffffffffffffffffffffffffffffffff1916145b80610673575061067282610f76565b5b9050919050565b6060600180546106899061248f565b80601f01602080910402602001604051908101604052809291908181526020018280546106b59061248f565b80156107025780601f106106d757610100808354040283529160200191610702565b820191906000526020600020905b8154815290600101906020018083116106e557829003601f168201915b5050505050905090565b600061071782610fe0565b610756576040517f08c379a000000000000000000000000000000000000000000000000000000000815260040161074d90612533565b60405180910390fd5b6005600083815260200190815260200160002060009054906101000a900473ffffffffffffffffffffffffffffffffffffffff169050919050565b600061079c826109f8565b90508073ffffffffffffffffffffffffffffffffffffffff168373ffffffffffffffffffffffffffffffffffffffff16141561080d576040517f08c379a0000000000000000000000000000000000000000000000000000000008152600401610804906125c5565b60405180910390fd5b8073ffffffffffffffffffffffffffffffffffffffff1661082c610f50565b73ffffffffffffffffffffffffffffffffffffffff16148061085b575061085a81610855610f50565b610dc4565b5b61089a576040517f08c379a000000000000000000000000000000000000000000000000000000000815260040161089190612657565b60405180910390fd5b6108a4838361104c565b505050565b6108ba6108b4610f50565b82611105565b6108f9576040517f08c379a00000000000000000000000000000000000000000000000000000000081526004016108f0906126e9565b60405180910390fd5b6109048383836111e3565b505050565b6008602052816000526040600020818154811061092557600080fd5b9060005260206000209060030201600091509150508060000154908060010154908060020180546109559061248f565b80601f01602080910402602001604051908101604052809291908181526020018280546109819061248f565b80156109ce5780601f106109a3576101008083540402835291602001916109ce565b820191906000526020600020905b8154815290600101906020018083116109b157829003601f168201915b5050505050905083565b6109f383838360405180602001604052806000815250610cbb565b505050565b6000806003600084815260200190815260200160002060009054906101000a900473ffffffffffffffffffffffffffffffffffffffff169050600073ffffffffffffffffffffffffffffffffffffffff168173ffffffffffffffffffffffffffffffffffffffff161415610aa1576040517f08c379a0000000000000000000000000000000000000000000000000000000008152600401610a989061277b565b60405180910390fd5b80915050919050565b60008073ffffffffffffffffffffffffffffffffffffffff168273ffffffffffffffffffffffffffffffffffffffff161415610b1b576040517f08c379a0000000000000000000000000000000000000000000000000000000008152600401610b129061280d565b60405180910390fd5b600460008373ffffffffffffffffffffffffffffffffffffffff1673ffffffffffffffffffffffffffffffffffffffff168152602001908152602001600020549050919050565b610b6a610f50565b73ffffffffffffffffffffffffffffffffffffffff16610b88610bea565b73ffffffffffffffffffffffffffffffffffffffff1614610bde576040517f08c379a0000000000000000000000000000000000000000000000000000000008152600401610bd590612329565b60405180910390fd5b610be8600061144a565b565b60008060009054906101000a900473ffffffffffffffffffffffffffffffffffffffff16905090565b606060028054610c229061248f565b80601f0160208091040260200160405190810160405280929190818152602001828054610c4e9061248f565b8015610c9b5780601f10610c7057610100808354040283529160200191610c9b565b820191906000526020600020905b815481529060010190602001808311610c7e57829003601f168201915b5050505050905090565b610cb7610cb0610f50565b838361150e565b5050565b610ccc610cc6610f50565b83611105565b610d0b576040517f08c379a0000000000000000000000000000000000000000000000000000000008152600401610d02906126e9565b60405180910390fd5b610d178484848461167b565b50505050565b6060610d2882610fe0565b610d67576040517f08c379a0000000000000000000000000000000000000000000000000000000008152600401610d5e9061289f565b60405180910390fd5b6000610d716116d7565b90506000815111610d915760405180602001604052806000815250610dbc565b80610d9b846116ee565b604051602001610dac9291906128fb565b6040516020818303038152906040525b915050919050565b6000600660008473ffffffffffffffffffffffffffffffffffffffff1673ffffffffffffffffffffffffffffffffffffffff16815260200190815260200160002060008373ffffffffffffffffffffffffffffffffffffffff1673ffffffffffffffffffffffffffffffffffffffff16815260200190815260200160002060009054906101000a900460ff16905092915050565b610e60610f50565b73ffffffffffffffffffffffffffffffffffffffff16610e7e610bea565b73ffffffffffffffffffffffffffffffffffffffff1614610ed4576040517f08c379a0000000000000000000000000000000000000000000000000000000008152600401610ecb90612329565b60405180910390fd5b600073ffffffffffffffffffffffffffffffffffffffff168173ffffffffffffffffffffffffffffffffffffffff161415610f44576040517f08c379a0000000000000000000000000000000000000000000000000000000008152600401610f3b90612991565b60405180910390fd5b610f4d8161144a565b50565b600033905090565b610f7282826040518060200160405280600081525061184f565b5050565b60007f01ffc9a7000000000000000000000000000000000000000000000000000000007bffffffffffffffffffffffffffffffffffffffffffffffffffffffff1916827bffffffffffffffffffffffffffffffffffffffffffffffffffffffff1916149050919050565b60008073ffffffffffffffffffffffffffffffffffffffff166003600084815260200190815260200160002060009054906101000a900473ffffffffffffffffffffffffffffffffffffffff1673ffffffffffffffffffffffffffffffffffffffff1614159050919050565b816005600083815260200190815260200160002060006101000a81548173ffffffffffffffffffffffffffffffffffffffff021916908373ffffffffffffffffffffffffffffffffffffffff160217905550808273ffffffffffffffffffffffffffffffffffffffff166110bf836109f8565b73ffffffffffffffffffffffffffffffffffffffff167f8c5be1e5ebec7d5bd14f71427d1e84f3dd0314c0f7b2291e5b200ac8c7c3b92560405160405180910390a45050565b600061111082610fe0565b61114f576040517f08c379a000000000000000000000000000000000000000000000000000000000815260040161114690612a23565b60405180910390fd5b600061115a836109f8565b90508073ffffffffffffffffffffffffffffffffffffffff168473ffffffffffffffffffffffffffffffffffffffff1614806111c957508373ffffffffffffffffffffffffffffffffffffffff166111b18461070c565b73ffffffffffffffffffffffffffffffffffffffff16145b806111da57506111d98185610dc4565b5b91505092915050565b8273ffffffffffffffffffffffffffffffffffffffff16611203826109f8565b73ffffffffffffffffffffffffffffffffffffffff1614611259576040517f08c379a000000000000000000000000000000000000000000000000000000000815260040161125090612ab5565b60405180910390fd5b600073ffffffffffffffffffffffffffffffffffffffff168273ffffffffffffffffffffffffffffffffffffffff1614156112c9576040517f08c379a00000000000000000000000000000000000000000000000000000000081526004016112c090612b47565b60405180910390fd5b6112d48383836118aa565b6112df60008261104c565b6001600460008573ffffffffffffffffffffffffffffffffffffffff1673ffffffffffffffffffffffffffffffffffffffff168152602001908152602001600020600082825461132f9190612b67565b925050819055506001600460008473ffffffffffffffffffffffffffffffffffffffff1673ffffffffffffffffffffffffffffffffffffffff1681526020019081526020016000206000828254611386919061240a565b92505081905550816003600083815260200190815260200160002060006101000a81548173ffffffffffffffffffffffffffffffffffffffff021916908373ffffffffffffffffffffffffffffffffffffffff160217905550808273ffffffffffffffffffffffffffffffffffffffff168473ffffffffffffffffffffffffffffffffffffffff167fddf252ad1be2c89b69c2b068fc378daa952ba7f163c4a11628f55a4df523b3ef60405160405180910390a46114458383836118af565b505050565b60008060009054906101000a900473ffffffffffffffffffffffffffffffffffffffff169050816000806101000a81548173ffffffffffffffffffffffffffffffffffffffff021916908373ffffffffffffffffffffffffffffffffffffffff1602179055508173ffffffffffffffffffffffffffffffffffffffff168173ffffffffffffffffffffffffffffffffffffffff167f8be0079c531659141344cd1fd0a4f28419497f9722a3daafe3b4186f6b6457e060405160405180910390a35050565b8173ffffffffffffffffffffffffffffffffffffffff168373ffffffffffffffffffffffffffffffffffffffff16141561157d576040517f08c379a000000000000000000000000000000000000000000000000000000000815260040161157490612be7565b60405180910390fd5b80600660008573ffffffffffffffffffffffffffffffffffffffff1673ffffffffffffffffffffffffffffffffffffffff16815260200190815260200160002060008473ffffffffffffffffffffffffffffffffffffffff1673ffffffffffffffffffffffffffffffffffffffff16815260200190815260200160002060006101000a81548160ff0219169083151502179055508173ffffffffffffffffffffffffffffffffffffffff168373ffffffffffffffffffffffffffffffffffffffff167f17307eab39ab6107e8899845ad3d59bd9653f200f220920489ca2b5937696c318360405161166e9190611e1b565b60405180910390a3505050565b6116868484846111e3565b611692848484846118b4565b6116d1576040517f08c379a00000000000000000000000000000000000000000000000000000000081526004016116c890612c79565b60405180910390fd5b50505050565b606060405180602001604052806000815250905090565b60606000821415611736576040518060400160405280600181526020017f3000000000000000000000000000000000000000000000000000000000000000815250905061184a565b600082905060005b6000821461176857808061175190612c99565b915050600a826117619190612d11565b915061173e565b60008167ffffffffffffffff811115611784576117836120ef565b5b6040519080825280601f01601f1916602001820160405280156117b65781602001600182028036833780820191505090505b5090505b60008514611843576001826117cf9190612b67565b9150600a856117de9190612d42565b60306117ea919061240a565b60f81b818381518110611800576117ff612d73565b5b60200101907effffffffffffffffffffffffffffffffffffffffffffffffffffffffffffff1916908160001a905350600a8561183c9190612d11565b94506117ba565b8093505050505b919050565b6118598383611a3c565b61186660008484846118b4565b6118a5576040517f08c379a000000000000000000000000000000000000000000000000000000000815260040161189c90612c79565b60405180910390fd5b505050565b505050565b505050565b60006118d58473ffffffffffffffffffffffffffffffffffffffff16611c16565b15611a2f578373ffffffffffffffffffffffffffffffffffffffff1663150b7a026118fe610f50565b8786866040518563ffffffff1660e01b81526004016119209493929190612df7565b6020604051808303816000875af192505050801561195c57506040513d601f19601f820116820180604052508101906119599190612e58565b60015b6119df573d806000811461198c576040519150601f19603f3d011682016040523d82523d6000602084013e611991565b606091505b506000815114156119d7576040517f08c379a00000000000000000000000000000000000000000000000000000000081526004016119ce90612c79565b60405180910390fd5b805181602001fd5b63150b7a0260e01b7bffffffffffffffffffffffffffffffffffffffffffffffffffffffff1916817bffffffffffffffffffffffffffffffffffffffffffffffffffffffff191614915050611a34565b600190505b949350505050565b600073ffffffffffffffffffffffffffffffffffffffff168273ffffffffffffffffffffffffffffffffffffffff161415611aac576040517f08c379a0000000000000000000000000000000000000000000000000000000008152600401611aa390612ed1565b60405180910390fd5b611ab581610fe0565b15611af5576040517f08c379a0000000000000000000000000000000000000000000000000000000008152600401611aec90612f3d565b60405180910390fd5b611b01600083836118aa565b6001600460008473ffffffffffffffffffffffffffffffffffffffff1673ffffffffffffffffffffffffffffffffffffffff1681526020019081526020016000206000828254611b51919061240a565b92505081905550816003600083815260200190815260200160002060006101000a81548173ffffffffffffffffffffffffffffffffffffffff021916908373ffffffffffffffffffffffffffffffffffffffff160217905550808273ffffffffffffffffffffffffffffffffffffffff16600073ffffffffffffffffffffffffffffffffffffffff167fddf252ad1be2c89b69c2b068fc378daa952ba7f163c4a11628f55a4df523b3ef60405160405180910390a4611c12600083836118af565b5050565b6000808273ffffffffffffffffffffffffffffffffffffffff163b119050919050565b828054611c459061248f565b90600052602060002090601f016020900481019282611c675760008555611cae565b82601f10611c8057805160ff1916838001178555611cae565b82800160010185558215611cae579182015b82811115611cad578251825591602001919060010190611c92565b5b509050611cbb9190611cbf565b5090565b5b80821115611cd8576000816000905550600101611cc0565b5090565b6000604051905090565b600080fd5b600080fd5b600073ffffffffffffffffffffffffffffffffffffffff82169050919050565b6000611d1b82611cf0565b9050919050565b611d2b81611d10565b8114611d3657600080fd5b50565b600081359050611d4881611d22565b92915050565b600060208284031215611d6457611d63611ce6565b5b6000611d7284828501611d39565b91505092915050565b60007fffffffff0000000000000000000000000000000000000000000000000000000082169050919050565b611db081611d7b565b8114611dbb57600080fd5b50565b600081359050611dcd81611da7565b92915050565b600060208284031215611de957611de8611ce6565b5b6000611df784828501611dbe565b91505092915050565b60008115159050919050565b611e1581611e00565b82525050565b6000602082019050611e306000830184611e0c565b92915050565b600081519050919050565b600082825260208201905092915050565b60005b83811015611e70578082015181840152602081019050611e55565b83811115611e7f576000848401525b50505050565b6000601f19601f8301169050919050565b6000611ea182611e36565b611eab8185611e41565b9350611ebb818560208601611e52565b611ec481611e85565b840191505092915050565b60006020820190508181036000830152611ee98184611e96565b905092915050565b6000819050919050565b611f0481611ef1565b8114611f0f57600080fd5b50565b600081359050611f2181611efb565b92915050565b600060208284031215611f3d57611f3c611ce6565b5b6000611f4b84828501611f12565b91505092915050565b611f5d81611d10565b82525050565b6000602082019050611f786000830184611f54565b92915050565b60008060408385031215611f9557611f94611ce6565b5b6000611fa385828601611d39565b9250506020611fb485828601611f12565b9150509250929050565b600080600060608486031215611fd757611fd6611ce6565b5b6000611fe586828701611d39565b9350506020611ff686828701611d39565b925050604061200786828701611f12565b9150509250925092565b61201a81611ef1565b82525050565b60006060820190506120356000830186612011565b6120426020830185612011565b81810360408301526120548184611e96565b9050949350505050565b60006020820190506120736000830184612011565b92915050565b61208281611e00565b811461208d57600080fd5b50565b60008135905061209f81612079565b92915050565b600080604083850312156120bc576120bb611ce6565b5b60006120ca85828601611d39565b92505060206120db85828601612090565b9150509250929050565b600080fd5b600080fd5b7f4e487b7100000000000000000000000000000000000000000000000000000000600052604160045260246000fd5b61212782611e85565b810181811067ffffffffffffffff82111715612146576121456120ef565b5b80604052505050565b6000612159611cdc565b9050612165828261211e565b919050565b600067ffffffffffffffff821115612185576121846120ef565b5b61218e82611e85565b9050602081019050919050565b82818337600083830152505050565b60006121bd6121b88461216a565b61214f565b9050828152602081018484840111156121d9576121d86120ea565b5b6121e484828561219b565b509392505050565b600082601f830112612201576122006120e5565b5b81356122118482602086016121aa565b91505092915050565b6000806000806080858703121561223457612233611ce6565b5b600061224287828801611d39565b945050602061225387828801611d39565b935050604061226487828801611f12565b925050606085013567ffffffffffffffff81111561228557612284611ceb565b5b612291878288016121ec565b91505092959194509250565b600080604083850312156122b4576122b3611ce6565b5b60006122c285828601611d39565b92505060206122d385828601611d39565b9150509250929050565b7f4f776e61626c653a2063616c6c6572206973206e6f7420746865206f776e6572600082015250565b6000612313602083611e41565b915061231e826122dd565b602082019050919050565b6000602082019050818103600083015261234281612306565b9050919050565b7f526563697069656e742063616e6e6f7420626520746865206f776e6572206f6660008201527f2074686520636f6e740000000000000000000000000000000000000000000000602082015250565b60006123a5602983611e41565b91506123b082612349565b604082019050919050565b600060208201905081810360008301526123d481612398565b9050919050565b7f4e487b7100000000000000000000000000000000000000000000000000000000600052601160045260246000fd5b600061241582611ef1565b915061242083611ef1565b9250827fffffffffffffffffffffffffffffffffffffffffffffffffffffffffffffffff03821115612455576124546123db565b5b828201905092915050565b7f4e487b7100000000000000000000000000000000000000000000000000000000600052602260045260246000fd5b600060028204905060018216806124a757607f821691505b602082108114156124bb576124ba612460565b5b50919050565b7f4552433732313a20617070726f76656420717565727920666f72206e6f6e657860008201527f697374656e7420746f6b656e0000000000000000000000000000000000000000602082015250565b600061251d602c83611e41565b9150612528826124c1565b604082019050919050565b6000602082019050818103600083015261254c81612510565b9050919050565b7f4552433732313a20617070726f76616c20746f2063757272656e74206f776e6560008201527f7200000000000000000000000000000000000000000000000000000000000000602082015250565b60006125af602183611e41565b91506125ba82612553565b604082019050919050565b600060208201905081810360008301526125de816125a2565b9050919050565b7f4552433732313a20617070726f76652063616c6c6572206973206e6f74206f7760008201527f6e6572206e6f7220617070726f76656420666f7220616c6c0000000000000000602082015250565b6000612641603883611e41565b915061264c826125e5565b604082019050919050565b6000602082019050818103600083015261267081612634565b9050919050565b7f4552433732313a207472616e736665722063616c6c6572206973206e6f74206f60008201527f776e6572206e6f7220617070726f766564000000000000000000000000000000602082015250565b60006126d3603183611e41565b91506126de82612677565b604082019050919050565b60006020820190508181036000830152612702816126c6565b9050919050565b7f4552433732313a206f776e657220717565727920666f72206e6f6e657869737460008201527f656e7420746f6b656e0000000000000000000000000000000000000000000000602082015250565b6000612765602983611e41565b915061277082612709565b604082019050919050565b6000602082019050818103600083015261279481612758565b9050919050565b7f4552433732313a2062616c616e636520717565727920666f7220746865207a6560008201527f726f206164647265737300000000000000000000000000000000000000000000602082015250565b60006127f7602a83611e41565b91506128028261279b565b604082019050919050565b60006020820190508181036000830152612826816127ea565b9050919050565b7f4552433732314d657461646174613a2055524920717565727920666f72206e6f60008201527f6e6578697374656e7420746f6b656e0000000000000000000000000000000000602082015250565b6000612889602f83611e41565b91506128948261282d565b604082019050919050565b600060208201905081810360008301526128b88161287c565b9050919050565b600081905092915050565b60006128d582611e36565b6128df81856128bf565b93506128ef818560208601611e52565b80840191505092915050565b600061290782856128ca565b915061291382846128ca565b91508190509392505050565b7f4f776e61626c653a206e6577206f776e657220697320746865207a65726f206160008201527f6464726573730000000000000000000000000000000000000000000000000000602082015250565b600061297b602683611e41565b91506129868261291f565b604082019050919050565b600060208201905081810360008301526129aa8161296e565b9050919050565b7f4552433732313a206f70657261746f7220717565727920666f72206e6f6e657860008201527f697374656e7420746f6b656e0000000000000000000000000000000000000000602082015250565b6000612a0d602c83611e41565b9150612a18826129b1565b604082019050919050565b60006020820190508181036000830152612a3c81612a00565b9050919050565b7f4552433732313a207472616e736665722066726f6d20696e636f72726563742060008201527f6f776e6572000000000000000000000000000000000000000000000000000000602082015250565b6000612a9f602583611e41565b9150612aaa82612a43565b604082019050919050565b60006020820190508181036000830152612ace81612a92565b9050919050565b7f4552433732313a207472616e7366657220746f20746865207a65726f2061646460008201527f7265737300000000000000000000000000000000000000000000000000000000602082015250565b6000612b31602483611e41565b9150612b3c82612ad5565b604082019050919050565b60006020820190508181036000830152612b6081612b24565b9050919050565b6000612b7282611ef1565b9150612b7d83611ef1565b925082821015612b9057612b8f6123db565b5b828203905092915050565b7f4552433732313a20617070726f766520746f2063616c6c657200000000000000600082015250565b6000612bd1601983611e41565b9150612bdc82612b9b565b602082019050919050565b60006020820190508181036000830152612c0081612bc4565b9050919050565b7f4552433732313a207472616e7366657220746f206e6f6e20455243373231526560008201527f63656976657220696d706c656d656e7465720000000000000000000000000000602082015250565b6000612c63603283611e41565b9150612c6e82612c07565b604082019050919050565b60006020820190508181036000830152612c9281612c56565b9050919050565b6000612ca482611ef1565b91507fffffffffffffffffffffffffffffffffffffffffffffffffffffffffffffffff821415612cd757612cd66123db565b5b600182019050919050565b7f4e487b7100000000000000000000000000000000000000000000000000000000600052601260045260246000fd5b6000612d1c82611ef1565b9150612d2783611ef1565b925082612d3757612d36612ce2565b5b828204905092915050565b6000612d4d82611ef1565b9150612d5883611ef1565b925082612d6857612d67612ce2565b5b828206905092915050565b7f4e487b7100000000000000000000000000000000000000000000000000000000600052603260045260246000fd5b600081519050919050565b600082825260208201905092915050565b6000612dc982612da2565b612dd38185612dad565b9350612de3818560208601611e52565b612dec81611e85565b840191505092915050565b6000608082019050612e0c6000830187611f54565b612e196020830186611f54565b612e266040830185612011565b8181036060830152612e388184612dbe565b905095945050505050565b600081519050612e5281611da7565b92915050565b600060208284031215612e6e57612e6d611ce6565b5b6000612e7c84828501612e43565b91505092915050565b7f4552433732313a206d696e7420746f20746865207a65726f2061646472657373600082015250565b6000612ebb602083611e41565b9150612ec682612e85565b602082019050919050565b60006020820190508181036000830152612eea81612eae565b9050919050565b7f4552433732313a20746f6b656e20616c7265616479206d696e74656400000000600082015250565b6000612f27601c83611e41565b9150612f3282612ef1565b602082019050919050565b60006020820190508181036000830152612f5681612f1a565b905091905056fea26469706673582212204ba6c5643ea1e637fccc1b52f0e27322f98d02c28c70bd5674929fb798f13f2464736f6c634300080c0033",
  "immutableReferences": {},
  "source": "// SPDX-License-Identifier: UNLICENSED\npragma solidity ^0.8.0;\n\nimport \"@openzeppelin/contracts/token/ERC721/ERC721.sol\";\nimport \"@openzeppelin/contracts/access/Ownable.sol\";\n\ncontract NFT is Ownable, ERC721(\"LalaNft\", \"LNFT\") {\n    uint256 tokenId;\n    mapping(address => tokenMetaData[]) public ownershipRecord;\n    struct tokenMetaData {\n        uint256 tokenId;\n        uint256 timeStamp;\n        string tokenURI;\n    }\n    //onlyOwner modifier is from Ownable\n    function mintToken(address recipient) onlyOwner public {\n        require(owner()!=recipient, \"Recipient cannot be the owner of the cont\");\n        _safeMint(msg.sender, tokenId);\n        ownershipRecord[recipient].push(tokenMetaData(\n            tokenId,\n            block.timestamp,\n            \"http://img/name.png\"\n        ));\n        tokenId = tokenId + 1;\n    }\n}\n",
  "sourcePath": "/Users/mac/Desktop/ERC721token/contracts/NFT.sol",
  "compiler": {
    "name": "solc",
    "version": "0.8.12+commit.f00d7308.Emscripten.clang"
  },
  "schemaVersion": "3.4.6",
  "updatedAt": "2022-03-28T11:32:54.616Z",
  "devdoc": {
    "kind": "dev",
    "methods": {
      "approve(address,uint256)": {
        "details": "See {IERC721-approve}."
      },
      "balanceOf(address)": {
        "details": "See {IERC721-balanceOf}."
      },
      "getApproved(uint256)": {
        "details": "See {IERC721-getApproved}."
      },
      "isApprovedForAll(address,address)": {
        "details": "See {IERC721-isApprovedForAll}."
      },
      "name()": {
        "details": "See {IERC721Metadata-name}."
      },
      "owner()": {
        "details": "Returns the address of the current owner."
      },
      "ownerOf(uint256)": {
        "details": "See {IERC721-ownerOf}."
      },
      "renounceOwnership()": {
        "details": "Leaves the contract without owner. It will not be possible to call `onlyOwner` functions anymore. Can only be called by the current owner. NOTE: Renouncing ownership will leave the contract without an owner, thereby removing any functionality that is only available to the owner."
      },
      "safeTransferFrom(address,address,uint256)": {
        "details": "See {IERC721-safeTransferFrom}."
      },
      "safeTransferFrom(address,address,uint256,bytes)": {
        "details": "See {IERC721-safeTransferFrom}."
      },
      "setApprovalForAll(address,bool)": {
        "details": "See {IERC721-setApprovalForAll}."
      },
      "supportsInterface(bytes4)": {
        "details": "See {IERC165-supportsInterface}."
      },
      "symbol()": {
        "details": "See {IERC721Metadata-symbol}."
      },
      "tokenURI(uint256)": {
        "details": "See {IERC721Metadata-tokenURI}."
      },
      "transferFrom(address,address,uint256)": {
        "details": "See {IERC721-transferFrom}."
      },
      "transferOwnership(address)": {
        "details": "Transfers ownership of the contract to a new account (`newOwner`). Can only be called by the current owner."
      }
    },
    "version": 1
  },
  "userdoc": {
    "kind": "user",
    "methods": {},
    "version": 1
  }
}